{
  "contractName": "EthTrans",
  "abi": [
    {
      "anonymous": false,
      "inputs": [
        {
          "indexed": false,
          "internalType": "address",
          "name": "account",
          "type": "address"
        },
        {
          "indexed": false,
          "internalType": "address",
          "name": "token",
          "type": "address"
        },
        {
          "indexed": false,
          "internalType": "uint256",
          "name": "amount",
          "type": "uint256"
        }
      ],
      "name": "TokensPurchased",
      "type": "event"
    },
    {
      "inputs": [],
      "name": "name",
      "outputs": [
        {
          "internalType": "string",
          "name": "",
          "type": "string"
        }
      ],
      "stateMutability": "view",
      "type": "function",
      "constant": true
    },
    {
      "inputs": [],
      "name": "rate",
      "outputs": [
        {
          "internalType": "uint256",
          "name": "",
          "type": "uint256"
        }
      ],
      "stateMutability": "view",
      "type": "function",
      "constant": true
    },
    {
      "inputs": [],
      "name": "token",
      "outputs": [
        {
          "internalType": "contract Token",
          "name": "",
          "type": "address"
        }
      ],
      "stateMutability": "view",
      "type": "function",
      "constant": true
    },
    {
      "inputs": [],
      "name": "buyTokens",
      "outputs": [],
      "stateMutability": "payable",
      "type": "function",
      "payable": true
    }
  ],
  "bytecode": "0x60806040526040518060400160405280601181526020017f4574685472616e732045786368616e67650000000000000000000000000000008152506000908051906020019061004f929190610067565b50606460025534801561006157600080fd5b5061016b565b82805461007390610139565b90600052602060002090601f01602090048101928261009557600085556100dc565b82601f106100ae57805160ff19168380011785556100dc565b828001600101855582156100dc579182015b828111156100db5782518255916020019190600101906100c0565b5b5090506100e991906100ed565b5090565b5b808211156101065760008160009055506001016100ee565b5090565b7f4e487b7100000000000000000000000000000000000000000000000000000000600052602260045260246000fd5b6000600282049050600182168061015157607f821691505b602082108114156101655761016461010a565b5b50919050565b6106b68061017a6000396000f3fe60806040526004361061003f5760003560e01c806306fdde03146100445780632c4e722e1461006f578063d0febe4c1461009a578063fc0c546a146100a4575b600080fd5b34801561005057600080fd5b506100596100cf565b60405161006691906103d0565b60405180910390f35b34801561007b57600080fd5b5061008461015d565b604051610091919061040b565b60405180910390f35b6100a2610163565b005b3480156100b057600080fd5b506100b9610311565b6040516100c691906104a5565b60405180910390f35b600080546100dc906104ef565b80601f0160208091040260200160405190810160405280929190818152602001828054610108906104ef565b80156101555780601f1061012a57610100808354040283529160200191610155565b820191906000526020600020905b81548152906001019060200180831161013857829003601f168201915b505050505081565b60025481565b600034905080600160009054906101000a900473ffffffffffffffffffffffffffffffffffffffff1673ffffffffffffffffffffffffffffffffffffffff166370a08231306040518263ffffffff1660e01b81526004016101c49190610542565b602060405180830381865afa1580156101e1573d6000803e3d6000fd5b505050506040513d601f19601f82011682018060405250810190610205919061058e565b101561021057600080fd5b600160009054906101000a900473ffffffffffffffffffffffffffffffffffffffff1673ffffffffffffffffffffffffffffffffffffffff1663a9059cbb33836040518363ffffffff1660e01b815260040161026d9291906105bb565b6020604051808303816000875af115801561028c573d6000803e3d6000fd5b505050506040513d601f19601f820116820180604052508101906102b0919061061c565b507ff9b4eb3e43eebbf559e9b96ceff1c786a7edab2938c7f5f80678197c2e0edba533600160009054906101000a900473ffffffffffffffffffffffffffffffffffffffff168360405161030693929190610649565b60405180910390a150565b600160009054906101000a900473ffffffffffffffffffffffffffffffffffffffff1681565b600081519050919050565b600082825260208201905092915050565b60005b83811015610371578082015181840152602081019050610356565b83811115610380576000848401525b50505050565b6000601f19601f8301169050919050565b60006103a282610337565b6103ac8185610342565b93506103bc818560208601610353565b6103c581610386565b840191505092915050565b600060208201905081810360008301526103ea8184610397565b905092915050565b6000819050919050565b610405816103f2565b82525050565b600060208201905061042060008301846103fc565b92915050565b600073ffffffffffffffffffffffffffffffffffffffff82169050919050565b6000819050919050565b600061046b61046661046184610426565b610446565b610426565b9050919050565b600061047d82610450565b9050919050565b600061048f82610472565b9050919050565b61049f81610484565b82525050565b60006020820190506104ba6000830184610496565b92915050565b7f4e487b7100000000000000000000000000000000000000000000000000000000600052602260045260246000fd5b6000600282049050600182168061050757607f821691505b6020821081141561051b5761051a6104c0565b5b50919050565b600061052c82610426565b9050919050565b61053c81610521565b82525050565b60006020820190506105576000830184610533565b92915050565b600080fd5b61056b816103f2565b811461057657600080fd5b50565b60008151905061058881610562565b92915050565b6000602082840312156105a4576105a361055d565b5b60006105b284828501610579565b91505092915050565b60006040820190506105d06000830185610533565b6105dd60208301846103fc565b9392505050565b60008115159050919050565b6105f9816105e4565b811461060457600080fd5b50565b600081519050610616816105f0565b92915050565b6000602082840312156106325761063161055d565b5b600061064084828501610607565b91505092915050565b600060608201905061065e6000830186610533565b61066b6020830185610533565b61067860408301846103fc565b94935050505056fea2646970667358221220499d6dad1ac66010571b29d3cc48a89fcdfb3fd33d6efdcf2bb5d74f4d8ebfba64736f6c634300080c0033",
  "immutableReferences": {},
  "source": "// SPDX-License-Identifier: MIT\npragma solidity ^0.8.12;\n\nimport \"./Token.sol\";\n\ncontract EthTrans {\n  string public name = \"EthTrans Exchange\";\n  Token public token;\n  uint public rate = 100;\n\n  event TokensPurchased(\n    address account,\n    address token,\n    uint amount\n  );\n\n  // ...\n\n  function buyTokens() public payable {\n    // Calculate the number of tokens to buy\n    uint tokenAmount = msg.value;\n\n    require(token.balanceOf(address(this)) >= tokenAmount);\n\n    token.transfer(msg.sender, tokenAmount);\n\n    // Emit an event\n    emit TokensPurchased(msg.sender, address(token), tokenAmount);\n  }\n\n}",
  "sourcePath": "/Users/mac/Desktop/projects/Solidity/tokens/contracts/EthTrans.sol",
  "compiler": {
    "name": "solc",
    "version": "0.8.12+commit.f00d7308.Emscripten.clang"
  },
  "schemaVersion": "3.4.6",
  "updatedAt": "2022-03-18T14:56:10.592Z",
  "networkType": "ethereum",
  "devdoc": {
    "kind": "dev",
    "methods": {},
    "version": 1
  },
  "userdoc": {
    "kind": "user",
    "methods": {},
    "version": 1
  }
}