{
  "contractName": "MyTokenNFT",
  "abi": [
    {
      "inputs": [],
      "stateMutability": "nonpayable",
      "type": "constructor"
    },
    {
      "anonymous": false,
      "inputs": [
        {
          "indexed": true,
          "internalType": "address",
          "name": "owner",
          "type": "address"
        },
        {
          "indexed": true,
          "internalType": "address",
          "name": "approved",
          "type": "address"
        },
        {
          "indexed": true,
          "internalType": "uint256",
          "name": "tokenId",
          "type": "uint256"
        }
      ],
      "name": "Approval",
      "type": "event"
    },
    {
      "anonymous": false,
      "inputs": [
        {
          "indexed": true,
          "internalType": "address",
          "name": "owner",
          "type": "address"
        },
        {
          "indexed": true,
          "internalType": "address",
          "name": "operator",
          "type": "address"
        },
        {
          "indexed": false,
          "internalType": "bool",
          "name": "approved",
          "type": "bool"
        }
      ],
      "name": "ApprovalForAll",
      "type": "event"
    },
    {
      "anonymous": false,
      "inputs": [
        {
          "indexed": true,
          "internalType": "address",
          "name": "previousOwner",
          "type": "address"
        },
        {
          "indexed": true,
          "internalType": "address",
          "name": "newOwner",
          "type": "address"
        }
      ],
      "name": "OwnershipTransferred",
      "type": "event"
    },
    {
      "anonymous": false,
      "inputs": [
        {
          "indexed": true,
          "internalType": "address",
          "name": "from",
          "type": "address"
        },
        {
          "indexed": true,
          "internalType": "address",
          "name": "to",
          "type": "address"
        },
        {
          "indexed": true,
          "internalType": "uint256",
          "name": "tokenId",
          "type": "uint256"
        }
      ],
      "name": "Transfer",
      "type": "event"
    },
    {
      "inputs": [
        {
          "internalType": "address",
          "name": "to",
          "type": "address"
        },
        {
          "internalType": "uint256",
          "name": "tokenId",
          "type": "uint256"
        }
      ],
      "name": "approve",
      "outputs": [],
      "stateMutability": "nonpayable",
      "type": "function"
    },
    {
      "inputs": [
        {
          "internalType": "address",
          "name": "owner",
          "type": "address"
        }
      ],
      "name": "balanceOf",
      "outputs": [
        {
          "internalType": "uint256",
          "name": "",
          "type": "uint256"
        }
      ],
      "stateMutability": "view",
      "type": "function"
    },
    {
      "inputs": [
        {
          "internalType": "uint256",
          "name": "tokenId",
          "type": "uint256"
        }
      ],
      "name": "getApproved",
      "outputs": [
        {
          "internalType": "address",
          "name": "",
          "type": "address"
        }
      ],
      "stateMutability": "view",
      "type": "function"
    },
    {
      "inputs": [
        {
          "internalType": "address",
          "name": "owner",
          "type": "address"
        },
        {
          "internalType": "address",
          "name": "operator",
          "type": "address"
        }
      ],
      "name": "isApprovedForAll",
      "outputs": [
        {
          "internalType": "bool",
          "name": "",
          "type": "bool"
        }
      ],
      "stateMutability": "view",
      "type": "function"
    },
    {
      "inputs": [],
      "name": "name",
      "outputs": [
        {
          "internalType": "string",
          "name": "",
          "type": "string"
        }
      ],
      "stateMutability": "view",
      "type": "function"
    },
    {
      "inputs": [],
      "name": "owner",
      "outputs": [
        {
          "internalType": "address",
          "name": "",
          "type": "address"
        }
      ],
      "stateMutability": "view",
      "type": "function"
    },
    {
      "inputs": [
        {
          "internalType": "uint256",
          "name": "tokenId",
          "type": "uint256"
        }
      ],
      "name": "ownerOf",
      "outputs": [
        {
          "internalType": "address",
          "name": "",
          "type": "address"
        }
      ],
      "stateMutability": "view",
      "type": "function"
    },
    {
      "inputs": [],
      "name": "renounceOwnership",
      "outputs": [],
      "stateMutability": "nonpayable",
      "type": "function"
    },
    {
      "inputs": [
        {
          "internalType": "address",
          "name": "from",
          "type": "address"
        },
        {
          "internalType": "address",
          "name": "to",
          "type": "address"
        },
        {
          "internalType": "uint256",
          "name": "tokenId",
          "type": "uint256"
        }
      ],
      "name": "safeTransferFrom",
      "outputs": [],
      "stateMutability": "nonpayable",
      "type": "function"
    },
    {
      "inputs": [
        {
          "internalType": "address",
          "name": "from",
          "type": "address"
        },
        {
          "internalType": "address",
          "name": "to",
          "type": "address"
        },
        {
          "internalType": "uint256",
          "name": "tokenId",
          "type": "uint256"
        },
        {
          "internalType": "bytes",
          "name": "_data",
          "type": "bytes"
        }
      ],
      "name": "safeTransferFrom",
      "outputs": [],
      "stateMutability": "nonpayable",
      "type": "function"
    },
    {
      "inputs": [
        {
          "internalType": "address",
          "name": "operator",
          "type": "address"
        },
        {
          "internalType": "bool",
          "name": "approved",
          "type": "bool"
        }
      ],
      "name": "setApprovalForAll",
      "outputs": [],
      "stateMutability": "nonpayable",
      "type": "function"
    },
    {
      "inputs": [
        {
          "internalType": "bytes4",
          "name": "interfaceId",
          "type": "bytes4"
        }
      ],
      "name": "supportsInterface",
      "outputs": [
        {
          "internalType": "bool",
          "name": "",
          "type": "bool"
        }
      ],
      "stateMutability": "view",
      "type": "function"
    },
    {
      "inputs": [],
      "name": "symbol",
      "outputs": [
        {
          "internalType": "string",
          "name": "",
          "type": "string"
        }
      ],
      "stateMutability": "view",
      "type": "function"
    },
    {
      "inputs": [
        {
          "internalType": "address",
          "name": "from",
          "type": "address"
        },
        {
          "internalType": "address",
          "name": "to",
          "type": "address"
        },
        {
          "internalType": "uint256",
          "name": "tokenId",
          "type": "uint256"
        }
      ],
      "name": "transferFrom",
      "outputs": [],
      "stateMutability": "nonpayable",
      "type": "function"
    },
    {
      "inputs": [
        {
          "internalType": "address",
          "name": "newOwner",
          "type": "address"
        }
      ],
      "name": "transferOwnership",
      "outputs": [],
      "stateMutability": "nonpayable",
      "type": "function"
    },
    {
      "inputs": [
        {
          "internalType": "address",
          "name": "to",
          "type": "address"
        },
        {
          "internalType": "string",
          "name": "uri",
          "type": "string"
        }
      ],
      "name": "safeMint",
      "outputs": [],
      "stateMutability": "nonpayable",
      "type": "function"
    },
    {
      "inputs": [
        {
          "internalType": "uint256",
          "name": "tokenId",
          "type": "uint256"
        }
      ],
      "name": "tokenURI",
      "outputs": [
        {
          "internalType": "string",
          "name": "",
          "type": "string"
        }
      ],
      "stateMutability": "view",
      "type": "function"
    },
    {
      "inputs": [
        {
          "internalType": "address",
          "name": "recipient",
          "type": "address"
        },
        {
          "internalType": "string",
          "name": "hash",
          "type": "string"
        },
        {
          "internalType": "string",
          "name": "metadata",
          "type": "string"
        }
      ],
      "name": "awardItem",
      "outputs": [
        {
          "internalType": "uint256",
          "name": "",
          "type": "uint256"
        }
      ],
      "stateMutability": "nonpayable",
      "type": "function"
    }
  ],
  "bytecode": "0x60806040523480156200001157600080fd5b506040518060400160405280600a81526020017f4d79546f6b656e4e4654000000000000000000000000000000000000000000008152506040518060400160405280600381526020017f4d544e0000000000000000000000000000000000000000000000000000000000815250816000908051906020019062000096929190620001a6565b508060019080519060200190620000af929190620001a6565b505050620000d2620000c6620000d860201b60201c565b620000e060201b60201c565b620002bb565b600033905090565b6000600760009054906101000a900473ffffffffffffffffffffffffffffffffffffffff16905081600760006101000a81548173ffffffffffffffffffffffffffffffffffffffff021916908373ffffffffffffffffffffffffffffffffffffffff1602179055508173ffffffffffffffffffffffffffffffffffffffff168173ffffffffffffffffffffffffffffffffffffffff167f8be0079c531659141344cd1fd0a4f28419497f9722a3daafe3b4186f6b6457e060405160405180910390a35050565b828054620001b49062000285565b90600052602060002090601f016020900481019282620001d8576000855562000224565b82601f10620001f357805160ff191683800117855562000224565b8280016001018555821562000224579182015b828111156200022357825182559160200191906001019062000206565b5b50905062000233919062000237565b5090565b5b808211156200025257600081600090555060010162000238565b5090565b7f4e487b7100000000000000000000000000000000000000000000000000000000600052602260045260246000fd5b600060028204905060018216806200029e57607f821691505b60208210811415620002b557620002b462000256565b5b50919050565b61320b80620002cb6000396000f3fe608060405234801561001057600080fd5b50600436106101165760003560e01c80638bfaf101116100a2578063b88d4fde11610071578063b88d4fde146102df578063c87b56dd146102fb578063d204c45e1461032b578063e985e9c514610347578063f2fde38b1461037757610116565b80638bfaf101146102575780638da5cb5b1461028757806395d89b41146102a5578063a22cb465146102c357610116565b806323b872dd116100e957806323b872dd146101b557806342842e0e146101d15780636352211e146101ed57806370a082311461021d578063715018a61461024d57610116565b806301ffc9a71461011b57806306fdde031461014b578063081812fc14610169578063095ea7b314610199575b600080fd5b61013560048036038101906101309190611dcd565b610393565b6040516101429190611e15565b60405180910390f35b610153610475565b6040516101609190611ec9565b60405180910390f35b610183600480360381019061017e9190611f21565b610507565b6040516101909190611f8f565b60405180910390f35b6101b360048036038101906101ae9190611fd6565b61058c565b005b6101cf60048036038101906101ca9190612016565b6106a4565b005b6101eb60048036038101906101e69190612016565b610704565b005b61020760048036038101906102029190611f21565b610724565b6040516102149190611f8f565b60405180910390f35b61023760048036038101906102329190612069565b6107d6565b60405161024491906120a5565b60405180910390f35b61025561088e565b005b610271600480360381019061026c91906121f5565b610916565b60405161027e91906120a5565b60405180910390f35b61028f6109c3565b60405161029c9190611f8f565b60405180910390f35b6102ad6109ed565b6040516102ba9190611ec9565b60405180910390f35b6102dd60048036038101906102d891906122ac565b610a7f565b005b6102f960048036038101906102f4919061238d565b610a95565b005b61031560048036038101906103109190611f21565b610af7565b6040516103229190611ec9565b60405180910390f35b61034560048036038101906103409190612410565b610b09565b005b610361600480360381019061035c919061246c565b610bb6565b60405161036e9190611e15565b60405180910390f35b610391600480360381019061038c9190612069565b610c4a565b005b60007f80ac58cd000000000000000000000000000000000000000000000000000000007bffffffffffffffffffffffffffffffffffffffffffffffffffffffff1916827bffffffffffffffffffffffffffffffffffffffffffffffffffffffff1916148061045e57507f5b5e139f000000000000000000000000000000000000000000000000000000007bffffffffffffffffffffffffffffffffffffffffffffffffffffffff1916827bffffffffffffffffffffffffffffffffffffffffffffffffffffffff1916145b8061046e575061046d82610d42565b5b9050919050565b606060008054610484906124db565b80601f01602080910402602001604051908101604052809291908181526020018280546104b0906124db565b80156104fd5780601f106104d2576101008083540402835291602001916104fd565b820191906000526020600020905b8154815290600101906020018083116104e057829003601f168201915b5050505050905090565b600061051282610dac565b610551576040517f08c379a00000000000000000000000000000000000000000000000000000000081526004016105489061257f565b60405180910390fd5b6004600083815260200190815260200160002060009054906101000a900473ffffffffffffffffffffffffffffffffffffffff169050919050565b600061059782610724565b90508073ffffffffffffffffffffffffffffffffffffffff168373ffffffffffffffffffffffffffffffffffffffff161415610608576040517f08c379a00000000000000000000000000000000000000000000000000000000081526004016105ff90612611565b60405180910390fd5b8073ffffffffffffffffffffffffffffffffffffffff16610627610e18565b73ffffffffffffffffffffffffffffffffffffffff161480610656575061065581610650610e18565b610bb6565b5b610695576040517f08c379a000000000000000000000000000000000000000000000000000000000815260040161068c906126a3565b60405180910390fd5b61069f8383610e20565b505050565b6106b56106af610e18565b82610ed9565b6106f4576040517f08c379a00000000000000000000000000000000000000000000000000000000081526004016106eb90612735565b60405180910390fd5b6106ff838383610fb7565b505050565b61071f83838360405180602001604052806000815250610a95565b505050565b6000806002600084815260200190815260200160002060009054906101000a900473ffffffffffffffffffffffffffffffffffffffff169050600073ffffffffffffffffffffffffffffffffffffffff168173ffffffffffffffffffffffffffffffffffffffff1614156107cd576040517f08c379a00000000000000000000000000000000000000000000000000000000081526004016107c4906127c7565b60405180910390fd5b80915050919050565b60008073ffffffffffffffffffffffffffffffffffffffff168273ffffffffffffffffffffffffffffffffffffffff161415610847576040517f08c379a000000000000000000000000000000000000000000000000000000000815260040161083e90612859565b60405180910390fd5b600360008373ffffffffffffffffffffffffffffffffffffffff1673ffffffffffffffffffffffffffffffffffffffff168152602001908152602001600020549050919050565b610896610e18565b73ffffffffffffffffffffffffffffffffffffffff166108b46109c3565b73ffffffffffffffffffffffffffffffffffffffff161461090a576040517f08c379a0000000000000000000000000000000000000000000000000000000008152600401610901906128c5565b60405180910390fd5b610914600061121e565b565b6000600160098460405161092a9190612921565b908152602001604051809103902060009054906101000a900460ff1660ff16141561095457600080fd5b60016009846040516109669190612921565b908152602001604051809103902060006101000a81548160ff021916908360ff16021790555061099660086112e4565b60006109a260086112fa565b90506109ae8582611308565b6109b881846114e2565b809150509392505050565b6000600760009054906101000a900473ffffffffffffffffffffffffffffffffffffffff16905090565b6060600180546109fc906124db565b80601f0160208091040260200160405190810160405280929190818152602001828054610a28906124db565b8015610a755780601f10610a4a57610100808354040283529160200191610a75565b820191906000526020600020905b815481529060010190602001808311610a5857829003601f168201915b5050505050905090565b610a91610a8a610e18565b8383611556565b5050565b610aa6610aa0610e18565b83610ed9565b610ae5576040517f08c379a0000000000000000000000000000000000000000000000000000000008152600401610adc90612735565b60405180910390fd5b610af1848484846116c3565b50505050565b6060610b028261171f565b9050919050565b610b11610e18565b73ffffffffffffffffffffffffffffffffffffffff16610b2f6109c3565b73ffffffffffffffffffffffffffffffffffffffff1614610b85576040517f08c379a0000000000000000000000000000000000000000000000000000000008152600401610b7c906128c5565b60405180910390fd5b6000610b9160086112fa565b9050610b9d60086112e4565b610ba78382611871565b610bb181836114e2565b505050565b6000600560008473ffffffffffffffffffffffffffffffffffffffff1673ffffffffffffffffffffffffffffffffffffffff16815260200190815260200160002060008373ffffffffffffffffffffffffffffffffffffffff1673ffffffffffffffffffffffffffffffffffffffff16815260200190815260200160002060009054906101000a900460ff16905092915050565b610c52610e18565b73ffffffffffffffffffffffffffffffffffffffff16610c706109c3565b73ffffffffffffffffffffffffffffffffffffffff1614610cc6576040517f08c379a0000000000000000000000000000000000000000000000000000000008152600401610cbd906128c5565b60405180910390fd5b600073ffffffffffffffffffffffffffffffffffffffff168173ffffffffffffffffffffffffffffffffffffffff161415610d36576040517f08c379a0000000000000000000000000000000000000000000000000000000008152600401610d2d906129aa565b60405180910390fd5b610d3f8161121e565b50565b60007f01ffc9a7000000000000000000000000000000000000000000000000000000007bffffffffffffffffffffffffffffffffffffffffffffffffffffffff1916827bffffffffffffffffffffffffffffffffffffffffffffffffffffffff1916149050919050565b60008073ffffffffffffffffffffffffffffffffffffffff166002600084815260200190815260200160002060009054906101000a900473ffffffffffffffffffffffffffffffffffffffff1673ffffffffffffffffffffffffffffffffffffffff1614159050919050565b600033905090565b816004600083815260200190815260200160002060006101000a81548173ffffffffffffffffffffffffffffffffffffffff021916908373ffffffffffffffffffffffffffffffffffffffff160217905550808273ffffffffffffffffffffffffffffffffffffffff16610e9383610724565b73ffffffffffffffffffffffffffffffffffffffff167f8c5be1e5ebec7d5bd14f71427d1e84f3dd0314c0f7b2291e5b200ac8c7c3b92560405160405180910390a45050565b6000610ee482610dac565b610f23576040517f08c379a0000000000000000000000000000000000000000000000000000000008152600401610f1a90612a3c565b60405180910390fd5b6000610f2e83610724565b90508073ffffffffffffffffffffffffffffffffffffffff168473ffffffffffffffffffffffffffffffffffffffff161480610f9d57508373ffffffffffffffffffffffffffffffffffffffff16610f8584610507565b73ffffffffffffffffffffffffffffffffffffffff16145b80610fae5750610fad8185610bb6565b5b91505092915050565b8273ffffffffffffffffffffffffffffffffffffffff16610fd782610724565b73ffffffffffffffffffffffffffffffffffffffff161461102d576040517f08c379a000000000000000000000000000000000000000000000000000000000815260040161102490612ace565b60405180910390fd5b600073ffffffffffffffffffffffffffffffffffffffff168273ffffffffffffffffffffffffffffffffffffffff16141561109d576040517f08c379a000000000000000000000000000000000000000000000000000000000815260040161109490612b60565b60405180910390fd5b6110a883838361188f565b6110b3600082610e20565b6001600360008573ffffffffffffffffffffffffffffffffffffffff1673ffffffffffffffffffffffffffffffffffffffff16815260200190815260200160002060008282546111039190612baf565b925050819055506001600360008473ffffffffffffffffffffffffffffffffffffffff1673ffffffffffffffffffffffffffffffffffffffff168152602001908152602001600020600082825461115a9190612be3565b92505081905550816002600083815260200190815260200160002060006101000a81548173ffffffffffffffffffffffffffffffffffffffff021916908373ffffffffffffffffffffffffffffffffffffffff160217905550808273ffffffffffffffffffffffffffffffffffffffff168473ffffffffffffffffffffffffffffffffffffffff167fddf252ad1be2c89b69c2b068fc378daa952ba7f163c4a11628f55a4df523b3ef60405160405180910390a4611219838383611894565b505050565b6000600760009054906101000a900473ffffffffffffffffffffffffffffffffffffffff16905081600760006101000a81548173ffffffffffffffffffffffffffffffffffffffff021916908373ffffffffffffffffffffffffffffffffffffffff1602179055508173ffffffffffffffffffffffffffffffffffffffff168173ffffffffffffffffffffffffffffffffffffffff167f8be0079c531659141344cd1fd0a4f28419497f9722a3daafe3b4186f6b6457e060405160405180910390a35050565b6001816000016000828254019250508190555050565b600081600001549050919050565b600073ffffffffffffffffffffffffffffffffffffffff168273ffffffffffffffffffffffffffffffffffffffff161415611378576040517f08c379a000000000000000000000000000000000000000000000000000000000815260040161136f90612c85565b60405180910390fd5b61138181610dac565b156113c1576040517f08c379a00000000000000000000000000000000000000000000000000000000081526004016113b890612cf1565b60405180910390fd5b6113cd6000838361188f565b6001600360008473ffffffffffffffffffffffffffffffffffffffff1673ffffffffffffffffffffffffffffffffffffffff168152602001908152602001600020600082825461141d9190612be3565b92505081905550816002600083815260200190815260200160002060006101000a81548173ffffffffffffffffffffffffffffffffffffffff021916908373ffffffffffffffffffffffffffffffffffffffff160217905550808273ffffffffffffffffffffffffffffffffffffffff16600073ffffffffffffffffffffffffffffffffffffffff167fddf252ad1be2c89b69c2b068fc378daa952ba7f163c4a11628f55a4df523b3ef60405160405180910390a46114de60008383611894565b5050565b6114eb82610dac565b61152a576040517f08c379a000000000000000000000000000000000000000000000000000000000815260040161152190612d83565b60405180910390fd5b80600660008481526020019081526020016000209080519060200190611551929190611cbe565b505050565b8173ffffffffffffffffffffffffffffffffffffffff168373ffffffffffffffffffffffffffffffffffffffff1614156115c5576040517f08c379a00000000000000000000000000000000000000000000000000000000081526004016115bc90612def565b60405180910390fd5b80600560008573ffffffffffffffffffffffffffffffffffffffff1673ffffffffffffffffffffffffffffffffffffffff16815260200190815260200160002060008473ffffffffffffffffffffffffffffffffffffffff1673ffffffffffffffffffffffffffffffffffffffff16815260200190815260200160002060006101000a81548160ff0219169083151502179055508173ffffffffffffffffffffffffffffffffffffffff168373ffffffffffffffffffffffffffffffffffffffff167f17307eab39ab6107e8899845ad3d59bd9653f200f220920489ca2b5937696c31836040516116b69190611e15565b60405180910390a3505050565b6116ce848484610fb7565b6116da84848484611899565b611719576040517f08c379a000000000000000000000000000000000000000000000000000000000815260040161171090612e81565b60405180910390fd5b50505050565b606061172a82610dac565b611769576040517f08c379a000000000000000000000000000000000000000000000000000000000815260040161176090612f13565b60405180910390fd5b6000600660008481526020019081526020016000208054611789906124db565b80601f01602080910402602001604051908101604052809291908181526020018280546117b5906124db565b80156118025780601f106117d757610100808354040283529160200191611802565b820191906000526020600020905b8154815290600101906020018083116117e557829003601f168201915b505050505090506000611813611a21565b905060008151141561182957819250505061186c565b60008251111561185e578082604051602001611846929190612f33565b6040516020818303038152906040529250505061186c565b61186784611a38565b925050505b919050565b61188b828260405180602001604052806000815250611adf565b5050565b505050565b505050565b60006118ba8473ffffffffffffffffffffffffffffffffffffffff16611b3a565b15611a14578373ffffffffffffffffffffffffffffffffffffffff1663150b7a026118e3610e18565b8786866040518563ffffffff1660e01b81526004016119059493929190612fac565b6020604051808303816000875af192505050801561194157506040513d601f19601f8201168201806040525081019061193e919061300d565b60015b6119c4573d8060008114611971576040519150601f19603f3d011682016040523d82523d6000602084013e611976565b606091505b506000815114156119bc576040517f08c379a00000000000000000000000000000000000000000000000000000000081526004016119b390612e81565b60405180910390fd5b805181602001fd5b63150b7a0260e01b7bffffffffffffffffffffffffffffffffffffffffffffffffffffffff1916817bffffffffffffffffffffffffffffffffffffffffffffffffffffffff191614915050611a19565b600190505b949350505050565b606060405180602001604052806000815250905090565b6060611a4382610dac565b611a82576040517f08c379a0000000000000000000000000000000000000000000000000000000008152600401611a79906130ac565b60405180910390fd5b6000611a8c611a21565b90506000815111611aac5760405180602001604052806000815250611ad7565b80611ab684611b5d565b604051602001611ac7929190612f33565b6040516020818303038152906040525b915050919050565b611ae98383611308565b611af66000848484611899565b611b35576040517f08c379a0000000000000000000000000000000000000000000000000000000008152600401611b2c90612e81565b60405180910390fd5b505050565b6000808273ffffffffffffffffffffffffffffffffffffffff163b119050919050565b60606000821415611ba5576040518060400160405280600181526020017f30000000000000000000000000000000000000000000000000000000000000008152509050611cb9565b600082905060005b60008214611bd7578080611bc0906130cc565b915050600a82611bd09190613144565b9150611bad565b60008167ffffffffffffffff811115611bf357611bf26120ca565b5b6040519080825280601f01601f191660200182016040528015611c255781602001600182028036833780820191505090505b5090505b60008514611cb257600182611c3e9190612baf565b9150600a85611c4d9190613175565b6030611c599190612be3565b60f81b818381518110611c6f57611c6e6131a6565b5b60200101907effffffffffffffffffffffffffffffffffffffffffffffffffffffffffffff1916908160001a905350600a85611cab9190613144565b9450611c29565b8093505050505b919050565b828054611cca906124db565b90600052602060002090601f016020900481019282611cec5760008555611d33565b82601f10611d0557805160ff1916838001178555611d33565b82800160010185558215611d33579182015b82811115611d32578251825591602001919060010190611d17565b5b509050611d409190611d44565b5090565b5b80821115611d5d576000816000905550600101611d45565b5090565b6000604051905090565b600080fd5b600080fd5b60007fffffffff0000000000000000000000000000000000000000000000000000000082169050919050565b611daa81611d75565b8114611db557600080fd5b50565b600081359050611dc781611da1565b92915050565b600060208284031215611de357611de2611d6b565b5b6000611df184828501611db8565b91505092915050565b60008115159050919050565b611e0f81611dfa565b82525050565b6000602082019050611e2a6000830184611e06565b92915050565b600081519050919050565b600082825260208201905092915050565b60005b83811015611e6a578082015181840152602081019050611e4f565b83811115611e79576000848401525b50505050565b6000601f19601f8301169050919050565b6000611e9b82611e30565b611ea58185611e3b565b9350611eb5818560208601611e4c565b611ebe81611e7f565b840191505092915050565b60006020820190508181036000830152611ee38184611e90565b905092915050565b6000819050919050565b611efe81611eeb565b8114611f0957600080fd5b50565b600081359050611f1b81611ef5565b92915050565b600060208284031215611f3757611f36611d6b565b5b6000611f4584828501611f0c565b91505092915050565b600073ffffffffffffffffffffffffffffffffffffffff82169050919050565b6000611f7982611f4e565b9050919050565b611f8981611f6e565b82525050565b6000602082019050611fa46000830184611f80565b92915050565b611fb381611f6e565b8114611fbe57600080fd5b50565b600081359050611fd081611faa565b92915050565b60008060408385031215611fed57611fec611d6b565b5b6000611ffb85828601611fc1565b925050602061200c85828601611f0c565b9150509250929050565b60008060006060848603121561202f5761202e611d6b565b5b600061203d86828701611fc1565b935050602061204e86828701611fc1565b925050604061205f86828701611f0c565b9150509250925092565b60006020828403121561207f5761207e611d6b565b5b600061208d84828501611fc1565b91505092915050565b61209f81611eeb565b82525050565b60006020820190506120ba6000830184612096565b92915050565b600080fd5b600080fd5b7f4e487b7100000000000000000000000000000000000000000000000000000000600052604160045260246000fd5b61210282611e7f565b810181811067ffffffffffffffff82111715612121576121206120ca565b5b80604052505050565b6000612134611d61565b905061214082826120f9565b919050565b600067ffffffffffffffff8211156121605761215f6120ca565b5b61216982611e7f565b9050602081019050919050565b82818337600083830152505050565b600061219861219384612145565b61212a565b9050828152602081018484840111156121b4576121b36120c5565b5b6121bf848285612176565b509392505050565b600082601f8301126121dc576121db6120c0565b5b81356121ec848260208601612185565b91505092915050565b60008060006060848603121561220e5761220d611d6b565b5b600061221c86828701611fc1565b935050602084013567ffffffffffffffff81111561223d5761223c611d70565b5b612249868287016121c7565b925050604084013567ffffffffffffffff81111561226a57612269611d70565b5b612276868287016121c7565b9150509250925092565b61228981611dfa565b811461229457600080fd5b50565b6000813590506122a681612280565b92915050565b600080604083850312156122c3576122c2611d6b565b5b60006122d185828601611fc1565b92505060206122e285828601612297565b9150509250929050565b600067ffffffffffffffff821115612307576123066120ca565b5b61231082611e7f565b9050602081019050919050565b600061233061232b846122ec565b61212a565b90508281526020810184848401111561234c5761234b6120c5565b5b612357848285612176565b509392505050565b600082601f830112612374576123736120c0565b5b813561238484826020860161231d565b91505092915050565b600080600080608085870312156123a7576123a6611d6b565b5b60006123b587828801611fc1565b94505060206123c687828801611fc1565b93505060406123d787828801611f0c565b925050606085013567ffffffffffffffff8111156123f8576123f7611d70565b5b6124048782880161235f565b91505092959194509250565b6000806040838503121561242757612426611d6b565b5b600061243585828601611fc1565b925050602083013567ffffffffffffffff81111561245657612455611d70565b5b612462858286016121c7565b9150509250929050565b6000806040838503121561248357612482611d6b565b5b600061249185828601611fc1565b92505060206124a285828601611fc1565b9150509250929050565b7f4e487b7100000000000000000000000000000000000000000000000000000000600052602260045260246000fd5b600060028204905060018216806124f357607f821691505b60208210811415612507576125066124ac565b5b50919050565b7f4552433732313a20617070726f76656420717565727920666f72206e6f6e657860008201527f697374656e7420746f6b656e0000000000000000000000000000000000000000602082015250565b6000612569602c83611e3b565b91506125748261250d565b604082019050919050565b600060208201905081810360008301526125988161255c565b9050919050565b7f4552433732313a20617070726f76616c20746f2063757272656e74206f776e6560008201527f7200000000000000000000000000000000000000000000000000000000000000602082015250565b60006125fb602183611e3b565b91506126068261259f565b604082019050919050565b6000602082019050818103600083015261262a816125ee565b9050919050565b7f4552433732313a20617070726f76652063616c6c6572206973206e6f74206f7760008201527f6e6572206e6f7220617070726f76656420666f7220616c6c0000000000000000602082015250565b600061268d603883611e3b565b915061269882612631565b604082019050919050565b600060208201905081810360008301526126bc81612680565b9050919050565b7f4552433732313a207472616e736665722063616c6c6572206973206e6f74206f60008201527f776e6572206e6f7220617070726f766564000000000000000000000000000000602082015250565b600061271f603183611e3b565b915061272a826126c3565b604082019050919050565b6000602082019050818103600083015261274e81612712565b9050919050565b7f4552433732313a206f776e657220717565727920666f72206e6f6e657869737460008201527f656e7420746f6b656e0000000000000000000000000000000000000000000000602082015250565b60006127b1602983611e3b565b91506127bc82612755565b604082019050919050565b600060208201905081810360008301526127e0816127a4565b9050919050565b7f4552433732313a2062616c616e636520717565727920666f7220746865207a6560008201527f726f206164647265737300000000000000000000000000000000000000000000602082015250565b6000612843602a83611e3b565b915061284e826127e7565b604082019050919050565b6000602082019050818103600083015261287281612836565b9050919050565b7f4f776e61626c653a2063616c6c6572206973206e6f7420746865206f776e6572600082015250565b60006128af602083611e3b565b91506128ba82612879565b602082019050919050565b600060208201905081810360008301526128de816128a2565b9050919050565b600081905092915050565b60006128fb82611e30565b61290581856128e5565b9350612915818560208601611e4c565b80840191505092915050565b600061292d82846128f0565b915081905092915050565b7f4f776e61626c653a206e6577206f776e657220697320746865207a65726f206160008201527f6464726573730000000000000000000000000000000000000000000000000000602082015250565b6000612994602683611e3b565b915061299f82612938565b604082019050919050565b600060208201905081810360008301526129c381612987565b9050919050565b7f4552433732313a206f70657261746f7220717565727920666f72206e6f6e657860008201527f697374656e7420746f6b656e0000000000000000000000000000000000000000602082015250565b6000612a26602c83611e3b565b9150612a31826129ca565b604082019050919050565b60006020820190508181036000830152612a5581612a19565b9050919050565b7f4552433732313a207472616e736665722066726f6d20696e636f72726563742060008201527f6f776e6572000000000000000000000000000000000000000000000000000000602082015250565b6000612ab8602583611e3b565b9150612ac382612a5c565b604082019050919050565b60006020820190508181036000830152612ae781612aab565b9050919050565b7f4552433732313a207472616e7366657220746f20746865207a65726f2061646460008201527f7265737300000000000000000000000000000000000000000000000000000000602082015250565b6000612b4a602483611e3b565b9150612b5582612aee565b604082019050919050565b60006020820190508181036000830152612b7981612b3d565b9050919050565b7f4e487b7100000000000000000000000000000000000000000000000000000000600052601160045260246000fd5b6000612bba82611eeb565b9150612bc583611eeb565b925082821015612bd857612bd7612b80565b5b828203905092915050565b6000612bee82611eeb565b9150612bf983611eeb565b9250827fffffffffffffffffffffffffffffffffffffffffffffffffffffffffffffffff03821115612c2e57612c2d612b80565b5b828201905092915050565b7f4552433732313a206d696e7420746f20746865207a65726f2061646472657373600082015250565b6000612c6f602083611e3b565b9150612c7a82612c39565b602082019050919050565b60006020820190508181036000830152612c9e81612c62565b9050919050565b7f4552433732313a20746f6b656e20616c7265616479206d696e74656400000000600082015250565b6000612cdb601c83611e3b565b9150612ce682612ca5565b602082019050919050565b60006020820190508181036000830152612d0a81612cce565b9050919050565b7f45524337323155524953746f726167653a2055524920736574206f66206e6f6e60008201527f6578697374656e7420746f6b656e000000000000000000000000000000000000602082015250565b6000612d6d602e83611e3b565b9150612d7882612d11565b604082019050919050565b60006020820190508181036000830152612d9c81612d60565b9050919050565b7f4552433732313a20617070726f766520746f2063616c6c657200000000000000600082015250565b6000612dd9601983611e3b565b9150612de482612da3565b602082019050919050565b60006020820190508181036000830152612e0881612dcc565b9050919050565b7f4552433732313a207472616e7366657220746f206e6f6e20455243373231526560008201527f63656976657220696d706c656d656e7465720000000000000000000000000000602082015250565b6000612e6b603283611e3b565b9150612e7682612e0f565b604082019050919050565b60006020820190508181036000830152612e9a81612e5e565b9050919050565b7f45524337323155524953746f726167653a2055524920717565727920666f722060008201527f6e6f6e6578697374656e7420746f6b656e000000000000000000000000000000602082015250565b6000612efd603183611e3b565b9150612f0882612ea1565b604082019050919050565b60006020820190508181036000830152612f2c81612ef0565b9050919050565b6000612f3f82856128f0565b9150612f4b82846128f0565b91508190509392505050565b600081519050919050565b600082825260208201905092915050565b6000612f7e82612f57565b612f888185612f62565b9350612f98818560208601611e4c565b612fa181611e7f565b840191505092915050565b6000608082019050612fc16000830187611f80565b612fce6020830186611f80565b612fdb6040830185612096565b8181036060830152612fed8184612f73565b905095945050505050565b60008151905061300781611da1565b92915050565b60006020828403121561302357613022611d6b565b5b600061303184828501612ff8565b91505092915050565b7f4552433732314d657461646174613a2055524920717565727920666f72206e6f60008201527f6e6578697374656e7420746f6b656e0000000000000000000000000000000000602082015250565b6000613096602f83611e3b565b91506130a18261303a565b604082019050919050565b600060208201905081810360008301526130c581613089565b9050919050565b60006130d782611eeb565b91507fffffffffffffffffffffffffffffffffffffffffffffffffffffffffffffffff82141561310a57613109612b80565b5b600182019050919050565b7f4e487b7100000000000000000000000000000000000000000000000000000000600052601260045260246000fd5b600061314f82611eeb565b915061315a83611eeb565b92508261316a57613169613115565b5b828204905092915050565b600061318082611eeb565b915061318b83611eeb565b92508261319b5761319a613115565b5b828206905092915050565b7f4e487b7100000000000000000000000000000000000000000000000000000000600052603260045260246000fdfea2646970667358221220400d4d6e899dc6b206a37a089cee8d1416fcb95460cdf15346ebf9afbb755f9f64736f6c634300080c0033",
  "immutableReferences": {},
  "source": "// SPDX-License-Identifier: MIT\npragma solidity ^0.8.4;\n\nimport \"@openzeppelin/contracts/token/ERC721/ERC721.sol\";\nimport \"@openzeppelin/contracts/token/ERC721/extensions/ERC721URIStorage.sol\";\nimport \"@openzeppelin/contracts/access/Ownable.sol\";\nimport \"@openzeppelin/contracts/utils/Counters.sol\";\n\ncontract MyTokenNFT is ERC721, ERC721URIStorage, Ownable {\n    using Counters for Counters.Counter;\n\n    Counters.Counter private _tokenIdCounter;\n    mapping(string => uint8) hashes;\n\n    constructor() ERC721(\"MyTokenNFT\", \"MTN\") {}\n\n    function safeMint(address to, string memory uri) public onlyOwner {\n        uint256 tokenId = _tokenIdCounter.current();\n        _tokenIdCounter.increment();\n        _safeMint(to, tokenId);\n        _setTokenURI(tokenId, uri);\n    }\n\n    // The following functions are overrides required by Solidity.\n\n    function _burn(uint256 tokenId) internal override(ERC721, ERC721URIStorage) {\n        super._burn(tokenId);\n    }\n\n    function tokenURI(uint256 tokenId)\n        public\n        view\n        override(ERC721, ERC721URIStorage)\n        returns (string memory)\n    {\n        return super.tokenURI(tokenId);\n    }\n\n    function awardItem(address recipient, string memory hash, string memory metadata) public returns (uint256) {\n        require(hashes[hash] != 1);\n        hashes[hash] = 1;\n        _tokenIdCounter.increment();\n        uint256 newItemId = _tokenIdCounter.current();\n        _mint(recipient, newItemId);\n        _setTokenURI(newItemId, metadata);\n        return newItemId;\n    }\n}",
  "sourcePath": "/Users/mac/Desktop/projects/Solidity/tokens/contracts/TokenE721.sol",
  "compiler": {
    "name": "solc",
    "version": "0.8.12+commit.f00d7308.Emscripten.clang"
  },
  "schemaVersion": "3.4.6",
  "updatedAt": "2022-03-18T12:27:09.798Z",
  "devdoc": {
    "kind": "dev",
    "methods": {
      "approve(address,uint256)": {
        "details": "See {IERC721-approve}."
      },
      "balanceOf(address)": {
        "details": "See {IERC721-balanceOf}."
      },
      "getApproved(uint256)": {
        "details": "See {IERC721-getApproved}."
      },
      "isApprovedForAll(address,address)": {
        "details": "See {IERC721-isApprovedForAll}."
      },
      "name()": {
        "details": "See {IERC721Metadata-name}."
      },
      "owner()": {
        "details": "Returns the address of the current owner."
      },
      "ownerOf(uint256)": {
        "details": "See {IERC721-ownerOf}."
      },
      "renounceOwnership()": {
        "details": "Leaves the contract without owner. It will not be possible to call `onlyOwner` functions anymore. Can only be called by the current owner. NOTE: Renouncing ownership will leave the contract without an owner, thereby removing any functionality that is only available to the owner."
      },
      "safeTransferFrom(address,address,uint256)": {
        "details": "See {IERC721-safeTransferFrom}."
      },
      "safeTransferFrom(address,address,uint256,bytes)": {
        "details": "See {IERC721-safeTransferFrom}."
      },
      "setApprovalForAll(address,bool)": {
        "details": "See {IERC721-setApprovalForAll}."
      },
      "supportsInterface(bytes4)": {
        "details": "See {IERC165-supportsInterface}."
      },
      "symbol()": {
        "details": "See {IERC721Metadata-symbol}."
      },
      "transferFrom(address,address,uint256)": {
        "details": "See {IERC721-transferFrom}."
      },
      "transferOwnership(address)": {
        "details": "Transfers ownership of the contract to a new account (`newOwner`). Can only be called by the current owner."
      }
    },
    "version": 1
  },
  "userdoc": {
    "kind": "user",
    "methods": {},
    "version": 1
  }
}